:100000000C945E000C9486000C9486000C94860080
:100010000C9486000C9486000C9486000C94860048
:100020000C9486000C9486000C9486000C94C503F6
:100030000C9486000C9486000C9486000C94860028
:100040000C94B0080C9486000C94FE060C943007B7
:100050000C9486000C9486000C9486000C94860008
:100060000C9486000C948600000000080002010039
:100070000003040700000000000000000102040863
:100080001020408001020408102001020408102002
:10009000040404040404040402020202020203032E
:1000A0000303030300000000250028002B000000CC
:1000B0000000240027002A00A203600711241FBEAD
:1000C000CFEFD8E0DEBFCDBF11E0A0E0B1E0E4EDBE
:1000D000F9E102C005900D92AC36B107D9F722E0E4
:1000E000ACE6B1E001C01D92A735B207E1F710E020
:1000F000CCEBD0E004C02297FE010E94D50CC83B97
:10010000D107C9F70E94A1080C94E80C0C940000D8
:100110002F923F924F925F926F927F928F929F9217
:10012000AF92BF92CF92DF92EF92FF920F931F9305
:10013000CF93DF93CDB7DEB728970FB6F894DEBF25
:100140000FBECDBF1C0149835A836B837C8368013A
:100150007901FC0165817681882777FD8095982F4C
:100160000E94580B2B013C01C701B6010E94250BD0
:100170001F921F921F9224EB2F932CE0A22EB12CE2
:10018000C12CD12C14E6E12EF12C00E010E021E08E
:1001900030E040E050E00E9459080E94580B6B018B
:1001A0007C01A30192010E94540A29813A814B816A
:1001B0005C810E94BD0A6D837E838F8398870F9038
:1001C0000F900F900F9000E010E0B801882777FDA6
:1001D0008095982F0E94580B4B015C0129813A8130
:1001E0004B815C810E94B90A87FF24C020E030E087
:1001F00040E85FE3C501B4010E94550A9B01AC01D0
:100200006D817E818F8198850E94080C9B01AC01D5
:10021000C301B2010E94550A0E94250BC1010E9430
:10022000540561E070E080E090E00E9429090F5FD2
:100230001F4FCBCFC701B6010E94250BF10176837A
:10024000658328960FB6F894DEBF0FBECDBFDF9151
:10025000CF911F910F91FF90EF90DF90CF90BF90C3
:10026000AF909F908F907F906F905F904F903F9056
:100270002F9008950F931F93CF93DF93EC016B8121
:100280007C81882777FD8095982F0E94580B8B01E1
:100290009C0140E050E068E473E4CE010E948800D5
:1002A000DF91CF911F910F9108950F931F9380912C
:1002B000700190917101019690937101809370018A
:1002C00065E071E081EB91E00E94E10760917001CF
:1002D000709171014AE050E081EB91E00E94430887
:1002E00000E010E028EC32E440E050E066E973E41E
:1002F00084E891E00E94880000E010E020E83FE3FD
:1003000040E050E066E973E484E891E00E948800F0
:1003100000E010E028EC32E440E050E066E973E4ED
:1003200084E891E00E94880000E010E020E83FE3CC
:1003300040E050E066E973E484E891E00E948800C0
:1003400000E010E028EC32E440E050E066E973E4BD
:1003500084E891E00E94880084E891E01F910F9169
:100360000C943A010F931F9380916E0190916F014D
:10037000019690936F0180936E016CE171E081EBC7
:1003800091E00E94E10760916E0170916F014AE077
:1003900050E081EB91E00E94430800E010E02CE87F
:1003A00032E440E050E066E973E484E891E00E94C2
:1003B000880000E010E020EF31E440E050E066E922
:1003C00073E484E891E00E94880000E010E02CE8EB
:1003D00032E440E050E066E973E484E891E00E9492
:1003E000880000E010E020EF31E440E050E066E9F2
:1003F00073E484E891E00E94880000E010E02CE8BB
:1004000032E440E050E066E973E484E891E00E9461
:10041000880000E010E020EF31E440E050E066E9C1
:1004200073E484E891E00E94880000E010E02CE88A
:1004300032E440E050E066E973E484E891E00E9431
:10044000880084E891E01F910F910C943A010F937A
:100450001F9380916C0190916D01019690936D01B5
:1004600080936C0164E371E081EB91E00E94E1070D
:1004700060916C0170916D014AE050E081EB91E078
:100480000E94430800E010E028EC32E440E050E035
:1004900066E973E484E891E00E94880000E010E0DF
:1004A00020E732E440E050E066E973E484E891E05C
:1004B0000E94880000E010E028EC32E440E050E0C8
:1004C00066E973E484E891E00E94880000E010E0AF
:1004D00020E732E440E050E066E973E484E891E02C
:1004E0000E94880000E010E028EC32E440E050E098
:1004F00066E973E484E891E00E94880000E010E07F
:1005000020E732E440E050E066E973E484E891E0FB
:100510000E94880000E010E028EC32E440E050E067
:1005200066E973E484E891E00E94880000E010E04E
:1005300020E732E440E050E066E973E484E891E0CB
:100540000E94880000E010E028EC32E440E050E037
:1005500066E973E484E891E00E94880084E891E011
:100560001F910F910C943A01CF93DF93EC01888592
:100570000E949E099F838E8320917301211110C0D8
:1005800020917201211106C0CC9754F481E0809330
:10059000720106C0863491051CF081E080937301DE
:1005A00080917301882331F01092720110927301CF
:1005B00081E001C080E0DF91CF910895CF92DF927A
:1005C000EF92FF92CF93DF93EC010E94FA086B0148
:1005D0007C01409176015091770160917801709192
:1005E0007901411551056105710551F4CE010E9453
:1005F000B4028823E9F180917401909175012BC0B8
:10060000D701C601841B950BA60BB70BAC01BD012E
:100610004C3251406105710568F4CE010E94B4026C
:10062000882331F180917401909175018330910597
:1006300094F01EC080917401909175011092750123
:100640001092740110927601109277011092780145
:10065000109279010FC001969093750180937401F7
:10066000C0927601D0927701E0927801F092790100
:100670008FEF9FEFDF91CF91FF90EF90DF90CF90C2
:100680000895CF93DF9326E040E855E260E070E004
:1006900081EB91E00E949C0669E070E084E891E0C3
:1006A0000E941B05CCE0D0E0D0938A01C093890161
:1006B0006BE070E084E891E00E9454056CE271E028
:1006C00080E090E00E9429096CE070E084E891E00D
:1006D0000E945405D0938801C0938701DF91CF9188
:1006E000089585E591E090937B0180937A0182EBF8
:1006F00091E090937D0180937C0187E292E090935A
:100700007F0180937E018AE791E00E94DE02181645
:100710001906BCF48130910529F4E0917A01F09139
:100720007B010EC08230910529F4E0917C01F091AB
:100730007D0106C0039729F4E0917E01F0917F01CD
:100740000994089584E891E00E9481041092880140
:100750001092870110928A011092890110927B01F8
:1007600010927A0110927D0110927C0110927F010B
:1007700010927E0110928101109280018EE090E033
:10078000909383018093820108951F920F920FB678
:100790000F9211242F933F934F935F936F937F9307
:1007A0008F939F93AF93BF93EF93FF9380918C01AF
:1007B00087FF05C010928500109284001AC0209116
:1007C0008C01332727FD309580918B0190E028170D
:1007D00039077CF480918C01992787FD9095FC0165
:1007E000EE0FFF1FE80FF91FE357FE4F808186FDD4
:1007F00015C080918C018F5F80938C0120918C01BA
:10080000332727FD309580918B0190E02817390719
:10081000BCF480918C018C305CF112C080918C0111
:10082000992787FD9095FC01EE0FFF1FE80FF91F38
:10083000E357FE4F808160E08F730E941D0AD9CF7D
:100840008091840090918500049680349C4918F42E
:1008500080E49CE905C08091840090918500049615
:1008600090938900809388008FEF80938C0138C02B
:10087000209184003091850080918C01992787FD1B
:100880009095FC01EE0FFF1FE80FF91FE357FE4F95
:1008900081819281820F931F9093890080938800B9
:1008A00080918C01992787FD9095FC01EE0FFF1F29
:1008B000E80FF91FE357FE4F808186FF11C080913A
:1008C0008C01992787FD9095FC01EE0FFF1FE80F23
:1008D000F91FE357FE4F808161E08F730E941D0A6C
:1008E000FF91EF91BF91AF919F918F917F916F9108
:1008F0005F914F913F912F910F900FBE0F901F90DE
:10090000189520918B012C30A0F431E0320F3093F8
:100910008B01FC012083822F90E0FC01EE0FFF1F72
:10092000E80FF91FE357FE4F88EB9BE0928381832A
:1009300008952FEFFC0120830895DF92EF92FF923C
:100940000F931F93CF93DF93EC01D62E7A01890189
:1009500088818C3008F066C061E08D2D0E94E4092A
:100960008881A82FB0E0FD01EE0FFF1FEA0FFB1FEB
:10097000E357FE4F2D2D2F739081907C922B908307
:1009800060E272E06E197F0977FF02C06D5F7F4FF2
:100990007595679575956795698340E659E0401BA5
:1009A000510B57FF02C04D5F5F4F559547955595C9
:1009B00047954A836CE00E947B0C9CE0899FB001C4
:1009C000112420E030E0A901460F571FFA01EE0F75
:1009D000FF1FE40FF51FE357FE4F908196FD16C0F1
:1009E0002F5F3F4F2C30310571F781110FC01092EE
:1009F000800082E080938100109285001092840034
:100A0000B19A80916F00826080936F00888190E03E
:100A1000FC01EE0FFF1FE80FF91FE357FE4F808127
:100A2000806480838881DF91CF911F910F91FF9027
:100A3000EF90DF90089520E639E040E252E00C9418
:100A40009D04FC0180818C3070F5918128E830E0B4
:100A5000291B310997FD3395220F331F220F331FB6
:100A6000621773077CF0928128E532E0291B310977
:100A700097FD3395220F331F220F331F6217730721
:100A80000CF49B0122503109220F331F4FB7F89409
:100A900090E0FC01EE0FFF1FE80FF91FE357FE4F38
:100AA000328321834FBF08954F925F926F927F925E
:100AB000AF92BF92CF92DF92EF92FF920F931F936C
:100AC000CF93DF93EC01603282E078070CF040C0F6
:100AD00077FD06C0653B71052CF064EB70E002C049
:100AE00060E070E0898128E830E0281B310987FD4B
:100AF0003395220F331F220F331F5901CC24B7FC2B
:100B0000C094DC2C882777FD8095982F2A8148E5B2
:100B100052E0421B510927FD5395440F551F440FC6
:100B2000551F2A01662457FC6094762C7F926F92A1
:100B30005F924F9214EBE12EF12C00E010E020E0E8
:100B400030E0A9010E9459080F900F900F900F906C
:100B5000CE01DF91CF911F910F91FF90EF90DF9029
:100B6000CF90BF90AF907F906F905F904F900C941C
:100B70002105FC01818D228D90E0805C9F4F821BBE
:100B800091098F7399270895FC01918D828D981793
:100B900031F0828DE80FF11D858D90E008958FEF83
:100BA0009FEF0895FC01918D828D981761F0828DE1
:100BB000DF01A80FB11D5D968C91928D9F5F9F7391
:100BC000928F90E008958FEF9FEF089586E597E06C
:100BD000892B49F080E090E0892B29F00E9456078C
:100BE00081110C9400000895FC01848DDF01A80F91
:100BF000B11DA35ABF4F2C91848D90E001968F7345
:100C00009927848FA689B7892C93A089B1898C9163
:100C100080648C93938D848D981306C00288F38929
:100C2000E02D80818F7D80830895CF93DF93EC0149
:100C3000888D8823C9F0EA89FB89808185FD05C0FC
:100C4000A889B9898C9186FD0FC00FB607FCF5CF36
:100C5000808185FFF2CFA889B9898C9185FFEDCF7E
:100C6000CE010E94F405E7CFDF91CF910895CF9296
:100C7000DF92FF920F931F93CF93DF931F92CDB715
:100C8000DEB76C0181E0D60158968C9358975B963D
:100C90009C915B975C968C915C97981307C05096DB
:100CA000ED91FC915197808185FD2EC0F601038D59
:100CB00010E00F5F1F4F0F731127F02EF601848D88
:100CC000F81211C00FB607FCF9CFD6015096ED917E
:100CD000FC915197808185FFF1CFC60169830E9405
:100CE000F4056981EBCF838DE80FF11DE35AFF4FC7
:100CF0006083D6015B960C935B975296ED91FC91C5
:100D00005397808180620CC0D6015696ED91FC917C
:100D1000579760835096ED91FC9151978081806444
:100D2000808381E090E00F90DF91CF911F910F9130
:100D3000FF90DF90CF900895BF92CF92DF92EF9215
:100D4000FF92CF93DF93EC016A017B01B22EE88919
:100D5000F98982E08083411581EE580761057105AC
:100D6000A1F060E079E08DE390E0A70196010E9498
:100D7000870C2150310941095109569547953795FE
:100D80002795211580E1380798F0E889F9891082C4
:100D900060E874E88EE190E0A70196010E94870C5C
:100DA00021503109410951095695479537952795A5
:100DB000EC85FD853083EE85FF852083188EEC89D8
:100DC000FD89B082EA89FB89808180618083EA891C
:100DD000FB89808188608083EA89FB8980818068C3
:100DE0008083EA89FB8980818F7D8083DF91CF9129
:100DF000FF90EF90DF90CF90BF9008951F920F92D9
:100E00000FB60F9211242F938F939F93EF93FF931D
:100E1000E091C101F091C2018081E091C701F091A0
:100E2000C80182FD12C090818091CA018F5F8F73CB
:100E30002091CB01821751F0E091CA01F0E0EF540C
:100E4000FE4F958F8093CA0101C08081FF91EF9181
:100E50009F918F912F910F900FBE0F901F9018951B
:100E60001F920F920FB60F9211242F933F934F931F
:100E70005F936F937F938F939F93AF93BF93EF9302
:100E8000FF9381EB91E00E94F405FF91EF91BF91F8
:100E9000AF919F918F917F916F915F914F913F9112
:100EA0002F910F900FBE0F901F90189581EB91E03E
:100EB0000E94B90521E0892B09F420E0822F0895D2
:100EC0001092B4011092B30188EE93E0A0E0B0E07C
:100ED0008093B5019093B601A093B701B093B80188
:100EE0008FE491E09093B2018093B10185EC90E0A2
:100EF0009093BE018093BD0184EC90E09093C0017B
:100F00008093BF0180EC90E09093C2018093C10177
:100F100081EC90E09093C4018093C30182EC90E057
:100F20009093C6018093C50186EC90E09093C80130
:100F30008093C7011092CA011092CB011092CC018C
:100F40001092CD010895CF92DF92EF92FF920F930E
:100F50001F93CF93DF937C016A01EB0100E010E067
:100F60000C151D0571F06991D701ED91FC9101906F
:100F7000F081E02DC7010995892B19F00F5F1F4FF4
:100F8000EFCFC801DF91CF911F910F91FF90EF90AC
:100F9000DF90CF9008956115710581F0DB010D9010
:100FA0000020E9F7AD0141505109461B570BDC0108
:100FB000ED91FC910280F381E02D099480E090E0B6
:100FC00008950C94CB076BE571E00C94CB078F92DE
:100FD0009F92AF92BF92DF92EF92FF920F931F9377
:100FE000CF93DF93CDB7DEB7A1970FB6F894DEBFEE
:100FF0000FBECDBF7C01F42FD52ECB0119A222301C
:1010000008F42AE08E010F5D1F4F822E912CA12C37
:10101000B12C6F2F7D2DA50194010E94870CF22F1A
:10102000D32ECA01015011096A3014F4E0E301C063
:10103000E7E3E60FD801EC93232B242B252B49F76C
:10104000B801C7010E94CB07A1960FB6F894DEBF86
:101050000FBECDBFDF91CF911F910F91FF90EF9009
:10106000DF90BF90AF909F908F900895211531052C
:1010700041F4DC01ED91FC910190F081E02D642FB1
:1010800009940C94E7070F931F93CF93DF93EC0120
:101090009A01AB0160E070E00E9436088C01CE013D
:1010A0000E94E307800F911FDF91CF911F910F9155
:1010B00008954F925F926F927F92AF92BF92CF92BC
:1010C000DF92EF92FF920F931F93CF93DF93CDB7F1
:1010D000DEB729013A01621B730B840B950B29893A
:1010E0003A894B895C892A193B094C095D09298B8E
:1010F0003A8B4B8B5C8B9B01AC0169897A898B891C
:101100009C890E946B0CE418F50806091709A801D0
:1011100097010E94A90C2A0D3B1D4C1D5D1DCA01A3
:10112000B901DF91CF911F910F91FF90EF90DF9068
:10113000CF90BF90AF907F906F905F904F90089549
:1011400008950E9463090E94A0080E944103C6EE10
:10115000D5E00E9471032097E1F30E94E605F9CFE4
:101160001F920F920FB60F9211242F933F938F93DC
:101170009F93AF93BF9380914F0290915002A091A3
:101180005102B091520230914E0223E0230F2D37CD
:1011900020F40196A11DB11D05C026E8230F02967B
:1011A000A11DB11D20934E0280934F0290935002D7
:1011B000A0935102B0935202809153029091540235
:1011C000A0915502B09156020196A11DB11D8093C8
:1011D000530290935402A0935502B0935602BF91CC
:1011E000AF919F918F913F912F910F900FBE0F90D4
:1011F0001F9018952FB7F89460914F02709150028C
:1012000080915102909152022FBF08953FB7F894F8
:101210008091530290915402A0915502B0915602D0
:1012200026B5A89B05C02F3F19F00196A11DB11D41
:101230003FBF6627782F892F9A2F620F711D811D5E
:10124000911D42E0660F771F881F991F4A95D1F7BD
:1012500008958F929F92AF92BF92CF92DF92EF92BA
:10126000FF926B017C010E9406094B015C01C114D5
:10127000D104E104F104F1F00E94530A0E9406092E
:10128000681979098A099B09683E734081059105AF
:1012900070F321E0C21AD108E108F10888EE880E47
:1012A00083E0981EA11CB11CC114D104E104F10417
:1012B00029F7DDCFFF90EF90DF90CF90BF90AF90F8
:1012C0009F908F900895789484B5826084BD84B592
:1012D000816084BD85B5826085BD85B5816085BD31
:1012E000EEE6F0E0808181608083E1E8F0E010824A
:1012F000808182608083808181608083E0E8F0E08B
:10130000808181608083E1EBF0E080818460808374
:10131000E0EBF0E0808181608083EAE7F0E08081AB
:10132000846080838081826080838081816080830B
:101330008081806880831092C10008958E3008F00B
:101340008E5087702091040190E4299F9001112410
:10135000822B80937C0080917A00806480937A0055
:1013600080917A0086FDFCCF8091780020917900F1
:1013700090E0922B0895833081F028F4813099F029
:101380008230A1F008958730A9F08830B9F0843018
:10139000D1F4809180008F7D03C0809180008F7791
:1013A00080938000089584B58F7702C084B58F7DC7
:1013B00084BD08958091B0008F7703C08091B00004
:1013C0008F7D8093B0000895CF93DF9390E0FC0170
:1013D000E458FF4F2491FC01E057FF4F849188238C
:1013E00049F190E0880F991FFC01E255FF4FA5914C
:1013F000B4918C559F4FFC01C591D4919FB7611159
:1014000008C0F8948C91209582238C938881822344
:101410000AC0623051F4F8948C91322F30958323B6
:101420008C938881822B888304C0F8948C91822BC2
:101430008C939FBFDF91CF9108950F931F93CF930C
:10144000DF931F92CDB7DEB7282F30E0F901E859BE
:10145000FF4F8491F901E458FF4F1491F901E057CF
:10146000FF4F04910023C9F0882321F069830E9473
:10147000BB096981E02FF0E0EE0FFF1FEC55FF4F35
:10148000A591B4919FB7F8948C91611103C0109508
:10149000812301C0812B8C939FBF0F90DF91CF914F
:1014A0001F910F91089508955058BB27AA270ED079
:1014B00075C166D130F06BD120F031F49F3F11F44B
:1014C0001EF45BC10EF4E095E7FB51C1E92F77D123
:1014D00080F3BA17620773078407950718F071F451
:1014E0009EF58FC10EF4E0950B2EBA2FA02D0B01A7
:1014F000B90190010C01CA01A0011124FF27591B59
:1015000099F0593F50F4503E68F11A16F040A22F5E
:10151000232F342F4427585FF3CF469537952795CF
:10152000A795F0405395C9F77EF41F16BA0B620BCE
:10153000730B840BBAF09150A1F0FF0FBB1F661F15
:10154000771F881FC2F70EC0BA0F621F731F841F58
:1015500048F4879577956795B795F7959E3F08F07E
:10156000B3CF9395880F08F09927EE0F979587953D
:101570000895D9D008F481E008950CD00FC107D1A7
:1015800040F0FED030F021F45F3F19F0F0C051116F
:1015900039C1F3C014D198F39923C9F35523B1F39A
:1015A000951B550BBB27AA2762177307840738F0D2
:1015B0009F5F5F4F220F331F441FAA1FA9F333D031
:1015C0000E2E3AF0E0E830D091505040E695001CE5
:1015D000CAF729D0FE2F27D0660F771F881FBB1FA1
:1015E000261737074807AB07B0E809F0BB0B802D7B
:1015F000BF01FF2793585F4F2AF09E3F510568F0C7
:10160000B6C000C15F3FECF3983EDCF3869577955A
:101610006795B795F7959F5FC9F7880F911D9695C8
:10162000879597F90895E1E0660F771F881FBB1F24
:10163000621773078407BA0720F0621B730B840BD1
:10164000BA0BEE1F88F7E095089504D06894B111A5
:10165000D9C00895BCD088F09F5790F0B92F992732
:10166000B751A0F0D1F0660F771F881F991F1AF0AD
:10167000BA95C9F712C0B13081F0C3D0B1E0089576
:10168000C0C0672F782F8827B85F39F0B93FCCF3F7
:10169000869577956795B395D9F73EF490958095A3
:1016A000709561957F4F8F4F9F4F0895E89409C0C3
:1016B00097FB3EF490958095709561957F4F8F4F85
:1016C0009F4F9923A9F0F92F96E9BB279395F6959B
:1016D000879577956795B795F111F8CFFAF4BB0F19
:1016E00011F460FF1BC06F5F7F4F8F4F9F4F16C07D
:1016F000882311F096E911C0772321F09EE8872F07
:10170000762F05C0662371F096E8862F70E060E0C2
:101710002AF09A95660F771F881FDAF7880F96953B
:10172000879597F90895990F0008550FAA0BE0E8DF
:10173000FEEF16161706E807F907C0F01216130693
:10174000E407F50798F0621B730B840B950B39F4D3
:101750000A2661F0232B242B252B21F408950A2639
:1017600009F4A140A6958FEF811D811D089597F979
:101770009F6780E870E060E008959FEF80EC089537
:1017800000240A9416161706180609060895002460
:101790000A9412161306140605060895092E0394DA
:1017A000000C11F4882352F0BB0F40F4BF2B11F44E
:1017B00060FF04C06F5F7F4F8F4F9F4F089557FDAD
:1017C0009058440F551F59F05F3F71F04795880FAF
:1017D00097FB991F61F09F3F79F087950895121646
:1017E00013061406551FF2CF4695F1DF08C01616F2
:1017F00017061806991FF1CF8695710561050894A3
:101800000895E894BB2766277727CB0197F90895B9
:101810000BD0C4CFB5DF28F0BADF18F0952309F05C
:10182000A6CFABCF1124EECFCADFA0F3959FD1F3A3
:10183000950F50E0551F629FF001729FBB27F00D7E
:10184000B11D639FAA27F00DB11DAA1F649F6627D3
:10185000B00DA11D661F829F2227B00DA11D621F22
:10186000739FB00DA11D621F839FA00D611D221FDC
:10187000749F3327A00D611D231F849F600D211DC0
:10188000822F762F6A2F11249F5750408AF0E1F063
:1018900088234AF0EE0FFF1FBB1F661F771F881FAC
:1018A00091505040A9F79E3F510570F060CFAACFEC
:1018B0005F3FECF3983EDCF3869577956795B79597
:1018C000F795E7959F5FC1F7FE2B880F911D9695C1
:1018D000879597F90895DB018F939F930E94C80C19
:1018E000BF91AF91A29F800D911DA39F900DB29FBC
:1018F000900D11240895991B79E004C0991F961743
:1019000008F0961B881F7A95C9F780950895A1E283
:101910001A2EAA1BBB1BFD010DC0AA1FBB1FEE1F69
:10192000FF1FA217B307E407F50720F0A21BB30BB4
:10193000E40BF50B661F771F881F991F1A9469F730
:1019400060957095809590959B01AC01BD01CF018C
:101950000895052E97FB1EF400940E94C00C57FDBD
:1019600007D00E94870C07FC03D04EF40C94C00CE7
:1019700050954095309521953F4F4F4F5F4F0895BB
:1019800090958095709561957F4F8F4F9F4F0895EB
:101990000E94D90CA59F900DB49F900DA49F800D1F
:1019A000911D11240895EE0FFF1F0590F491E02D75
:1019B0000994A29FB001B39FC001A39F700D811D28
:1019C0001124911DB29F700D811D1124911D089548
:0419D000F894FFCFB9
:1019D4000100000001466972737420416374696FE9
:1019E4006E2043616C6C6564203A20005365636F1C
:1019F4006E6420416374696F6E2043616C6C65642E
:101A0400203A2000546869726420416374696F6EDF
:101A14002043616C6C6564203A20000000000037AC
:101A240006A307B905D205C40515060D0A006E61A3
:0C1A34006E00696E66006F7666002E0082
:00000001FF
